:100000000C94E0020C9427030C9427030C94270310
:100010000C9427030C9427030C9427030C942703B8
:100020000C9427030C9427030C94602D0C94362E0B
:100030000C94152D0C9427030C9427030C94270380
:100040000C9427030C9427030C9427030C94270388
:100050000C9427030C943C2D0C9427030C94270339
:100060000C9427030C9427030C9427030C94270368
:100070000C9427030C9427030C9427030C94270358
:100080000C9427030C9427030C9427030C94270348
:100090000C9427030C9427030C9427030C94270338
:1000A0000C9427030C9427030C94270305010902E1
:1000B000A10185020901A100050919012905150001
:1000C00025019505750181029501750381010501E1
:1000D000093009311581257F950275088106093897
:1000E0001581257F950175088106050C0A380215D2
:1000F00081257F950175088106C0C005010980A191
:1001000001850319012AB700150126B7009501756D
:10011000108100C0050C0901A101850419012AA064
:1001200002150126A002950175108100C005010984
:1001300006A1018505050719E029E71500250195A8
:1001400008750181020507190029EF1500250195A1
:10015000F0750181020508190129059505750191C0
:1001600002950175039101C00660FF0961A10109B3
:1001700062150026FF0095207508810209631500AD
:1001800026FF00952075089102C005010906A1010E
:10019000050719E029E71500250195087501810279
:1001A0009501750881010507190029FF150026FF33
:1001B0000095067508810005081901290595057542
:1001C000019102950175039101C009025B000301D1
:1001D00000A0FA0904000001030101000921110136
:1001E00000012240000705810308000A09040100FC
:1001F000020300000009211101000122220007056D
:100200008203200001070503032000010904020006
:10021000010300000009211101000122BC000705B3
:10022000840320000A1201000200000008EDFE60B5
:10023000600100010203011C037600690061006C8B
:10024000003A00660036003400630032006200337A
:1002500000630000000C0361006C00700068006126
:100260000000000C035000790072006F004C000089
:10027000000403090414001A000800150017001CEC
:100280000018000C001200130004001600070009FB
:10029000000A000B000D000E000F0011501D001B86
:1002A000000600190000002C62000005001100107B
:1002B000001E001F00200021002200230024002532
:1002C00000260027002A0029002B003300340050AC
:1002D00000510052004F001250E000E300E2001015
:1002E000500000286200003600370038003A003B1A
:1002F000003C003D003E003F004000410042004302
:1003000000E100440045002D002E002F0030003198
:100310000035001350C95CCA5CC55C10500000C3B6
:100320005C0000AE00AA00A900005C000000000014
:1003300000000000000000000000000000000000BD
:1003400000000000000000000000000000000000AD
:100350000000000000000010500000625D0000007E
:100360000000000000010001003F04000002000244
:10037000003B0400000300010040040000040002F0
:10038000002504A607050001004104000006000244
:100390000027040000070002003D040000080001DF
:1003A0000042040000090002002904AF070A00020D
:1003B000002B04AF070B0002002D04AF070C000256
:1003C000002F04AF070D0002003104AF070E00023A
:1003D000003304AF070F0002003504AF071000021E
:1003E000003704AF07110002003904AF0712000202
:1003F00000430400001300020045040000FD377AAA
:10040000585A000004E6D6B4460200210116000046
:1004100000742FE5A3E0013F00B95D003D8889C667
:100420005436C3174FE4EE6FC164BAA70CA55192BE
:1004300067CD7C1A01BC2314007D141DA47D28CC3B
:10044000D3AD6DC1DFAC4E55812A88473F94D4D2DD
:10045000A1609A06C38CAE3DC68C6C16154527006C
:10046000F281C291EC669ED5F82882748E69F98477
:100470004D4D9B037B2F695D28E22EB5FC837CA24A
:10048000055511F12A2A994497AFA9D648CA5B129B
:100490009AA5476211214D01EB4A90F14A30B7F31A
:1004A0006AA0496721DD9B84D12A47137E09671C16
:1004B0009A9E718968F4316115B3D878C968E314DC
:1004C0007CF638F1AA654312F5E89D3D7C5A2E284A
:1004D000F2565E860000000000F14326ED953F488D
:1004E0000D0001D501C0020000994A0FC9B1C467CF
:1004F000FB020000000004595A49276D20736F2049
:10050000736F7272792E2E2E202D5079726F4C00DF
:1005100000000000000000000000000000000000DB
:1005200000000000000000000000000000000000CB
:10053000000000007E0F00D4FFFFFFC7000000781E
:1005400000000000000000002A2B2800000000002E
:100550000000000000000000000000290000000072
:100560002C1E3420212224342627252E362D3738E0
:10057000271E1F202122232425263333362E3738E9
:100580001F0405060708090A0B0C0D0E0F101112A7
:10059000131415161718191A1B1C1D2F3130232D73
:1005A000350405060708090A0B0C0D0E0F10111271
:1005B000131415161718191A1B1C1D2F3130354C22
:1005C00011241FBECFEFDAE0DEBFCDBF04B603FEBD
:1005D00027C08091490490914A04A0914B04B091A6
:1005E0004C048730904BA740B04BD1F41092490493
:1005F00010924A0410924B0410924C0414BE84B71B
:10060000877F84BF0FB6F894A895809160008861B9
:1006100080936000109260000FBEE0E0F8E309955F
:1006200011E0A0E0B1E0E8E4FFE502C005900D9222
:10063000A037B107D9F724E0A0E7B1E001C01D92CF
:10064000A934B207E1F70E94A1260C94342F0C9430
:1006500000009C01FB019A9581159F4118F5D90175
:10066000AA27B270832F8170B90166277470A9011F
:100670004427587034FF0CC08295807FAB2B09F063
:100680008062672B09F08064452B09F0806809942B
:10069000AB2B09F08260672B09F08460452BB9F31E
:1006A0008860F5CF80E0F3CF282F892F82958F7057
:1006B000903C80F48A30B0F4843020F4823090F49E
:1006C00080E008958630E1F781E0283E88F0213F00
:1006D000B9F70EC08C3011F08F3091F793FB88275B
:1006E00080F9089581E0203F39F018F4283E40F762
:1006F0000895243F29F7FCCF0895E82F9E3F61F12C
:100700008AE0989FE00D11248E2F877041E001C090
:10071000440F8A95EAF7E695E695E69583E0E89F2B
:10072000F0011124E756FD4F30E020E070E05191D8
:10073000DF011197CB01022E02C0969587950A948E
:10074000E2F7817081958527842385278C932F5F1D
:100750003F4F2330310559F70895E82F9E3F41F16F
:100760008AE0989FE00D11249E2F9770E695E695FC
:10077000E69583E0E89FF0011124E756FD4F50E035
:1007800040E080E0219130E0092E02C036952795A7
:100790000A94E2F721703327042E01C0220F0A9435
:1007A000EAF7822B4F5F5F4F4330510559F70895A9
:1007B00080E008958091500290914F02981301C0FB
:1007C00008958F5F8770FACF909114019923C1F03B
:1007D0009091730397FF14C0E82FE695E695E69590
:1007E000803FF8F4F0E0EE58FE4F877021E030E0F3
:1007F00001C0220F8A95EAF78281822B82830895B5
:10080000A4E7B1E0EFEF90E02D91821751F0EF3FB8
:1008100019F4211101C0E92F9F5F9630A9F7EF3F2E
:1008200009F408950E2E000CFF0BEE58FE4FE6CF94
:10083000909114019923E1F09091730397FF18C0F0
:10084000E82FE695E695E695803FF0F4F0E0EE5867
:10085000FE4F877021E030E0A90102C0440F551F10
:100860008A95E2F7CA01809592818923828308954F
:10087000E4E7F1E09191891303C0DF0111971C9225
:1008800051E0EA37F507B1F70895982F90958091D8
:1008900078038923809378030895982F9095809109
:1008A0007A03892380937A030895809175038823BE
:1008B00031F0109275031092720310927103089533
:1008C0009091730392FF06C0282F28712830F9F405
:1008D000877F846093FF06C0282F28712831F1F4A8
:1008E000877E84612091740320FF06C0382F387101
:1008F0003830D9F4877F816021FF06C0282F287106
:100900002831D1F4877E816194FD877E0895282F58
:1009100024712430F9F68B7F8860DCCF282F247176
:10092000243101F78B7E8861DDCF382F3171313072
:1009300019F78E7F8860E0CF282F2171213121F7B0
:100940008E7E8861E1CFCF93DF93EC01803E9105ED
:1009500009F460C050F58133910509F4A6C090F404
:100960008932910509F49AC08A9709F4A5C0C1306B
:10097000D10509F462C0CE010497813A910508F0CF
:1009800055C05BC089339105F1F182389105D9F1E9
:10099000C59709F47CC0C83AD10508F094C0C53A9F
:1009A000D10528F3A497D06448C0843E910509F48A
:1009B00053C068F4823E9105E1F1833E910509F44C
:1009C00040C0CE01805E9109089780F536C0863E12
:1009D000910509F44CC0873E910509F44DC081157D
:1009E00023E5920708F09AC0811532E5930708F0D5
:1009F00000C18F3F910511F008F074C0803F910550
:100A000050F2D0651AC0809173038370B1F0C0EECC
:100A1000D0E013C08091730380FD15C190917403E1
:100A200090FF0BC0C3EED0E084FF07C0D0E0C0E071
:100A300004C08091730382FDF5CFCE01DF91CF9189
:100A400008958091730382FD01C19091740390FD1C
:100A5000DECF84FFF2CFEACF8091740381FFEDCF28
:100A600080917303C7EED0E084FDE0CFE6CF8091A4
:100A7000730383FDF7CFE1CF8091730383FDE9C05A
:100A80009091740391FFE5CFC4EED0E0D6CF809172
:100A9000730385FFD2CFC9E2D0E0CFCF809173033B
:100AA00085FFCBCFC5E3D0E0C8CF8091730386FF2D
:100AB000C4CFCAE2D0E0C1CF8091730386FFBDCF1F
:100AC000C1E3D0E0BACFCF3BD10508F07ACFC85A06
:100AD000D0E0CC0FDD1FCF5BDE4F0990D881C02D59
:100AE000D464ABCFC11581E5D80798F4C11520E5D2
:100AF000D20708F061C0C11530E2D30708F49DCFDA
:100B0000CE0190548115904108F090CFDF70D06AEB
:100B100094CFDC2FCC27C16FD06A8FCF811539E5F8
:100B20009307A0F5C11588E5D80708F07AC0C1156C
:100B300025E5D207C8F4C11534E5D30708F06CC029
:100B40009E012370332781E090E002C0880F991F37
:100B50002A95E2F7C695C69520E2C29FE0011124CE
:100B6000C82BD92BDA6869CFCE0195558F3F9105F7
:100B700011F008F05BCF8C2F0E946004C82FD0E0EA
:100B8000DC2FCC27CC27DF71D06257CF81153AE517
:100B9000930708F44BC090568115904208F046CF59
:100BA0008D2F8F710E94600490E0982F88278827EE
:100BB0009F718C2BEC01E8CF9E0174E03695279550
:100BC0007A95E1F723708C2F86958695837030E2B5
:100BD000839FC0011124922BC37021E030E002C03A
:100BE000220F331FCA95E2F7822B932BEC01DC68AE
:100BF00024CF9C012370332781E090E002C0880F4E
:100C0000991F2A95E2F7C695C69520E2C29FE0019A
:100C10001124C82BD92BEBCFDC2FCC27C46FD06A83
:100C20000CCFDC2FCC27C06FD06A07CF8F700E940B
:100C3000600434E0D695C7953A95E1F7CF709C2FC4
:100C4000EC01D069FACEC9E3D0E0F7CEC2EED0E035
:100C5000F4CEC6EED0E0F1CE80E00895F894E82F0F
:100C6000E295EF70F0E041A18F7021E030E0B90132
:100C700002C0660F771F8A95E2F7CB01962F9095F9
:100C8000942391A392A1892B82A3789408958091B3
:100C9000A60260912D0470912E0480FF16C0209151
:100CA0000301269FC001279F900D1124BC0176955A
:100CB0006795769567956038710508F043C06115B2
:100CC000710509F441C0862F089581FF0BC0209162
:100CD0000301269FC001279F900D1124BC0176952A
:100CE0006795E9CF82FF09C0809103019B01829F34
:100CF000B001839F700D1124DECF2091A802222322
:100D0000D1F29091020180910301482F50E0291700
:100D100048F0CB01849FB001859F700D949F700DAA
:100D20001124C9CF289F90011124269FA001279F3D
:100D3000500D369F500D1124692F70E0CA010E949A
:100D40007F2EB9CF8FE7089581E008958091A602A4
:100D500080FF0CC06091010170E0759567957595F5
:100D600067956115710549F1862F089581FF06C0C9
:100D70006091010170E075956795F3CF6091010175
:100D800082FD0BC09091A7029923A1F06091000110
:100D900080910101961738F0682F70E06038710576
:100DA00000F38FE70895899FC001112470E00E942D
:100DB000932EF4CF61E070E0D7CF81E00895805F9B
:100DC000803108F045C0E82FF0E0EA5CF04D0C946B
:100DD000A72E0E94470681958093AC0208950E9439
:100DE0004706FACF0E94470681958093AB0208958B
:100DF0000E944706FACF0E94A6068093AD0208958E
:100E00000E94A6068195F9CF0E94A606819580933F
:100E1000AE0208950E94A606FACF8091AA028160D0
:100E20008093AA0208958091AA028260F9CF8091EE
:100E3000AA028460F5CF8091AA028860F1CF8091E8
:100E4000AA028061EDCF8091A60281608093A60204
:100E500008958091A6028260F9CF8091A6028460F5
:100E6000F5CFE82F3091AC022091AB029091AD020A
:100E70008091AE02E03FA1F437FD1092AC02809168
:100E8000AB029091AC02892B11F41092A8028091D0
:100E9000AD029091AE02892B11F41092A702089531
:100EA000E13F19F413164CF3EACFE23F29F427FF90
:100EB000E6CF1092AB02E3CFE33F19F41216CCF366
:100EC000DECFE93F29F41916D4F61092AD02D7CF40
:100ED000EA3F19F497FFD3CFF8CFEB3F29F487FF10
:100EE000CECF1092AE02CBCFEC3F19F41816CCF354
:100EF000C6CFE45FEC3008F0C2CFF0E0EA5BF04D23
:100F00000C94A72E8091AA028E7F8093AA02B7CF5D
:100F10008091AA028D7FF9CF8091AA028B7FF5CFB5
:100F20008091AA02877FF1CF8091AA028F7EEDCFB8
:100F30008091A6028E7F8093A602A1CF8091A60207
:100F40008D7FF9CF8091A6028B7FF5CF809125040C
:100F50009091260490931301809312010895E5E285
:100F6000F4E0848195812AE030E0B9010E947F2E6F
:100F70006093100186818093110182858093030123
:100F800084858093020186859785B9010E947F2E12
:100F900060930E01808980930F0182898093010103
:100FA000848980930001089510928703109286032C
:100FB000EDEEF3E08581811102C01482168237962E
:100FC00084E0E532F807B1F70895AC013091890368
:100FD00060918803232F621301C00895822F90E04F
:100FE000FC01EE0FFF1FE258FC4F0190F081E02D55
:100FF000E417F50791F467E0649FF001659FF00D39
:101000001124E351FC4F41E044832313E6CF0196C2
:10101000837099278093890308950196282F237060
:10102000DACFE0914D02F0914E02309721F001901D
:10103000F081E02D099480E008952091C60130915F
:10104000C7012817390771F09093C7018093C60133
:10105000E0914D02F0914E02309721F00680F78129
:10106000E02D099408952091C4013091C5012817FD
:10107000390771F09093C5018093C401E0914D024E
:10108000F0914E02309721F00084F185E02D099413
:1010900008952FB7F8948091340290913502A09171
:1010A0003602B09137022FBF0895809127049091A6
:1010B0002804892B91F00E944908209171033091F6
:1010C0007203AC01421B530B9A0181E0409127044B
:1010D000509128042417350708F480E081700895A2
:1010E0008091780390917A03892B9091A502892BA6
:1010F0008093720180917503882319F180912704F0
:1011000090912804892B29F00E94550881110E9492
:1011100055048091720190917503892B809372011F
:1011200080911401882341F18091730387FF24C0CB
:101130008EE1E4E7F1E090E0815000F591110E942A
:101140005504E0914D02F0914E023097E1F080910C
:101150001401882359F08091730387FF07C08091A1
:1011600072018093730185E0809372010280F381A4
:10117000E02D82E791E0099486E0DBCF21912223E4
:10118000D9F29F5FD9CF0895882339F090917803E1
:10119000892B809378030C9470080895882321F09C
:1011A0000E9445040C9470080895882339F09091AA
:1011B0007A03892B80937A030C947008089588230E
:1011C00021F00E944D040C9470080895CF93DF9392
:1011D000EC01898981111BC081E0898B80917803A2
:1011E0009F81892B8093780380917A039885892B3E
:1011F00080937A030E947008EA81FB816C897D8963
:10120000309729F0CE010696DF91CF910994DF91B6
:10121000CF910895EF92FF920F931F93CF93DF9397
:10122000EC018A85811134C0EB80FC8087E5F81AD7
:1012300026E12E9DC0012F9D900D1124DC01A554A7
:10124000BD4F1496ED91FC911597309731F054965F
:101250006D917C918F539D4F099586E18E9D800104
:101260008F9D100D112405541D4FF80187810E9498
:101270004504F80180850E944D040E947008188280
:1012800019861B861E821D821092BA021092B90224
:10129000DF91CF911F910F91FF90EF9008950E94E1
:1012A00049082091AB023091AC02232B21F08093AE
:1012B0002602909327022091AD023091AE02232B9B
:1012C00021F08093240290932502E0914D02F09149
:1012D0004E02309749F082E08093A9020480F581A4
:1012E000E02D89EA92E009940895882309F452C018
:1012F000823871F40E94110881FF4CC089E30E947A
:10130000E4030E94700889E30E9418040C9470089A
:10131000833859F40E94110880FF3CC083E50E9485
:10132000E4030E94700883E5EFCF843859F40E94EB
:10133000110882FF2FC087E40E94E4030E94700816
:1013400087E4E2CF9CEF980F913AF0F290E2980F89
:10135000983050F4877091E001C0990F8A95EAF7B0
:10136000892F0E944504D2CF9BE5980F933020F43B
:1013700090E080E00C941D0898E5980F973120F4D8
:1013800090E080E00C943308803F20F00E94310709
:101390000C944F09089590E080E00E941D0890E0B1
:1013A00080E00E94330810927A031092A5020E94F6
:1013B000700886E0E9EAF2E0DF011D928A95E9F71C
:1013C0001092A8021092A7021092A6020C944F0944
:1013D000809376030C94CB09809377030C94CB090C
:1013E00021E030E001C0220F8A95EAF7809177036F
:1013F000822B0C94EC099091740392FD10C098E03C
:10140000899F90011124622B60937B030E94F00955
:101410000E94490890937D0380937C0308950C9467
:10142000F00921E030E001C0220F8A95EAF720950B
:101430008091770382230C94EC0990917B03809533
:10144000892380937B03282F277039F4282F082EB7
:10145000000C330B9217130621F49091740392FF42
:101460000BC08595859585950E94110A10927B0386
:1014700010927D0310927C0308959C014FB7F8945D
:101480008091340290913502A0913602B0913702DA
:101490004FBF821B930B089587E797E7909301084E
:1014A0008093000888E19AE00FB6F894A89580939D
:1014B00060000FBE90936000FFCF8091C30108953C
:1014C000FC01CB0120919E0130919F012617370727
:1014D00090F0009729F42091E8002E772093E800FF
:1014E00040E0009751F4411108C08091E80082FF6C
:1014F00031C080E00895C901F3CF20913D0222233D
:10150000A9F12530A9F12091E80023FD2DC02091FB
:10151000E80022FDEACF2091E80020FFE2CF3091E1
:10152000F3002091F200009719F02830310558F0AF
:1015300041E02830310509F040E02091E8002E77A5
:101540002093E800CECF41914093F10001972F5FA7
:101550003F4FE9CF80913D02882341F0853041F033
:101560008091E80083FFC1CF81E0089582E0089573
:1015700083E008958091980187FF13C08091E8006F
:1015800082FF06C08091E8008B778093E80004C05A
:1015900080913D028111F2CF089580913D02882310
:1015A000D9F38091E80080FFF8CF8091E8008E7732
:1015B000ECCF2091E4003091E50095E6A90120915F
:1015C000EC00822F817020FF06C08091E80080FF30
:1015D00006C080E008952091E80022FD1AC08091A5
:1015E0003D02882389F0853089F08091EB0085FDEC
:1015F0000FC02091E4003091E50042175307F9F243
:101600009150E1F684E0089582E0089583E0089522
:1016100081E00895E8EDF0E080818E7F8083109274
:10162000E2001092DA001092E100A0EEB0E08C919E
:1016300081608C9380818F77808319BCA7EDB0E0A7
:101640008C918E7F8C9380818F7E80831092970106
:101650000895EF92FF920F931F93CF937C018B011C
:101660000E94D90AC82F811117C08091E80085FD1A
:101670000BC08091E8008E778093E8000E94D90A21
:10168000882399F3C82F08C0F70181917F018093C7
:10169000F1000150110949F78C2FCF911F910F9143
:1016A000FF90EF900895CF9320913D022430F1F404
:1016B0002091E900C091EC00C795CC27C7952F7009
:1016C000C22B22E02093E9002091E80020FF0BC00C
:1016D00050E040E060E270E00E94290B8091E80059
:1016E0008E778093E800CF70C093E900CF91089582
:1016F00080917703982F9670963019F488600C9437
:10170000EC09877FFCCF982F9093E900242F762F48
:1017100050E0891731F07091EC002091ED0050916C
:10172000F00021FD06C09F5F973071F78093E900BC
:1017300008953091EB003E7F3093EB003091ED0047
:101740003D7F3093ED003091EB0031603093EB0042
:101750007093EC002093ED005093F0002091EE0088
:1017600027FDE1CF0895CF92DF92EF92FF920F9382
:101770001F93CF93DF93C8EDD0E088818F7E88835D
:10178000E7EDF0E080818160808384E082BF81E0CA
:101790008093970188818E7F888302EE10E0F801A4
:1017A00010821092DA0081EEC82ED12CF601108240
:1017B00088818F77888388818068888388818F7DFE
:1017C000888319BC10923D021092960110923C023F
:1017D0001092950190EEE92EF12CF70180818B7F1C
:1017E000808388818160888342E060E080E00E949D
:1017F000830BF60180818E7F8083F8018081816078
:101800008083808188608083F70180818E7F8083E0
:10181000888180618883DF91CF911F910F91FF9024
:10182000EF90DF90CF9008959C012115310509F4C8
:1018300008958FE99FE00197F1F700C00000215063
:101840003109F3CFCF93C82F882309F4AEC0823873
:10185000C1F40E94110881FDA8C089E30E94E4033D
:101860000E9470082FEF31EE84E02150304080401C
:10187000E1F700C0000089E30E941804CF910C94A6
:1018800070088338A1F40E94110880FD8EC083E5A2
:101890000E94E4030E9470089FEF21EE34E0915013
:1018A00020403040E1F700C0000083E5E5CF8438F8
:1018B000A1F40E94110882FD78C087E40E94E4032D
:1018C0000E9470088FEF91EE24E0815090402040FC
:1018D000E1F700C0000087E4CFCF8CEF8C0F813A96
:1018E00090F580911401882301F18091730387FFA3
:1018F0001CC0EC2FE695E695E695F0E0EE58FE4F1D
:10190000828190E04C2F477021E030E002C0220F2E
:10191000331F4A95E2F782239323892B81F08C2F82
:101920000E9418040E9470080AC0E4E7F1E08AE708
:1019300091E02191C21799F38E179F07D1F78C2F51
:101940000E94E4039BCF80E28C0F883068F4C7705C
:1019500021E030E001C0220FCA95EAF780917803B8
:10196000822B809378038ACF8BE58C0F833038F4F9
:101970002C2F2452330BC901CF910C941D08E8E59C
:10198000EC0FE73150F4F0E0EE0FFF1FEF5BFE4F7E
:1019900080819181CF910C943308C03F30F08C2F1F
:1019A0000E94DF06CF910C944F09CF910895FF92CA
:1019B0000F931F93CF93DF938C01EB01F42E809153
:1019C000160182FF43C08B7F8093160180916B03C9
:1019D00020916D0330916E03AB01421B530B9A01B2
:1019E000409112015091130124173507A8F40E9469
:1019F000220C809116018D7F809316018091430403
:101A0000909144040E94140C80916B030E9475090C
:101A100082E00E944D0424C090917A0392609093DA
:101A20007A030E94220C8091160182608093160135
:101A30008091400485FFE2CF86FDE0CFFF20F1F2E8
:101A4000DF91CF911F910F91FF900895802F0E94F9
:101A5000750980916B0390916C0380179107C1F217
:101A60000E947008D0936E03C0936D03E9CF0F936B
:101A70001F93CF93C82F00914504109146048933DA
:101A800021F000914304109144048C2F0E94220CF9
:101A90000115110531F48C2FCF911F910F910C94EA
:101AA00075098FE99FE00197F1F700C00000015030
:101AB0001109EECFDF92EF92FF920F931F93CF9316
:101AC000DF93E82FF0E0E05CFA4FD490282F2695C2
:101AD0002695269530E0F901E05DFA4F0491877074
:101AE00010E0082E02C0159507950A94E2F70170E0
:101AF0001127F901E05EFA4FE490F12C082E02C0A4
:101B0000F594E7940A94E2F791E0E922FF24F901C1
:101B1000E05FFA4FC491D0E002C0D595C7958A9591
:101B2000E2F7C170DD270115110519F081EE0E9461
:101B3000220CE114F10419F086EE0E94220C8D2D86
:101B40000E94370DEF2819F086EE0E947509012BCF
:101B500019F081EE0E947509CD2B51F08CE2DF91D6
:101B6000CF911F910F91FF90EF90DF900C94370D64
:101B7000DF91CF911F910F91FF90EF90DF9008952B
:101B80001F93CF93DF93EC011AE08881882309F437
:101B900040C08130D9F599818A81913029F422960B
:101BA0000E94370D2196F1CF923021F422960E94A7
:101BB000220CF8CF933021F422960E947509F2CFBF
:101BC000943011F02196EECF229620E030E0AE0165
:101BD0004F5F5F4F8053990B8A30910560F021155C
:101BE000310501F38FE99FE00197F1F700C0000094
:101BF00021503109F4CF129FB001139F700D1124B1
:101C00009C01260F371F8981EA01E1CF0E945A0DFE
:101C1000C9CFDF91CF911F910895FF920F931F932A
:101C2000CF93DF93C62FD42F122F8823A9F0609370
:101C30006F030E9449089093930180939201C770AB
:101C400081E001C0880FCA95EAF7DF91CF911F911B
:101C50000F91FF900C94C40880916F03681338C0F3
:101C600080919201909193010E943D0A20913D0440
:101C700030913E048217930758F500E20D0FCD17FF
:101C8000A9F0C770FF24F3948F2D01C0880FCA9567
:101C9000EAF70E94CE08083048F48D2F877001C003
:101CA000FF0C8A95EAF78F2D0E94C408812F0E94AD
:101CB000370D0830A0F4D77081E001C0880FDA95A5
:101CC000EAF7DF91CF911F910F91FF900C94CE080E
:101CD000C77081E001C0880FCA95EAF7F2CFDF91A3
:101CE000CF911F910F91FF900895CF93DF93D82F3D
:101CF000C92F809114018823C1F18091730387FF5C
:101D000034C060E284E08093E9008FEF9091E800B6
:101D1000815095FD06C095ED9A95F1F7000081116F
:101D2000F5CF8091E80085FF1DC08091140170E01F
:101D300050E040E0811104C050E040E068E070E015
:101D40008D2F9C2F0E94290B8091E8008E77809325
:101D5000E80080E2ED2FFC2FA3EAB1E001900D92A4
:101D60008A95E1F7DF91CF91089568E081E0CBCFCC
:101D700024E02093E9002FEF3091E800215035FD59
:101D800006C035ED3A95F1F700002111F5CF20910D
:101D9000E80025FF0BC050E040E066E070E00E94E4
:101DA000290B8091E8008E778093E8000895909148
:101DB0003D02943029F58093A0016093A1017093B6
:101DC000A2019093E9008FEF9091E800815095FD7A
:101DD00006C095ED9A95F1F700008111F5CF80913D
:101DE000E80085FF0DC050E040E063E070E080EA6D
:101DF00091E00E94290B8091E8008E778093E800A3
:101E00000895BC0183E00C94D70EBC0184E00C94CF
:101E1000D70ECF93C0917403C2FB992790F99817FE
:101E200081F080FBC2F9C09374036091730384E076
:101E300090E00E94F82E6C2F82E290E0CF910C94FB
:101E4000F82ECF910895CF93C82F6FEF83E290E0E3
:101E50000E94F82E6FEFC1116CE584E290E00E94C1
:101E6000F82E6FEFC11164EA85E290E0CF910C94F7
:101E7000F82E0F931F93CF93DF938901843048F599
:101E8000633038F54A3028F521153C4531F420916E
:101E9000380230913902232BE1F0C42FD0E0CC0F6F
:101EA000DD1F94E1699FC00DD11D11249CE3899F22
:101EB000C00DD11D1124612FCE0187960E94F82EEE
:101EC000602FCE018896DF91CF911F910F910C94D6
:101ED000F82EDF91CF911F910F910895CF93DF934B
:101EE000C9EDD1E060E0CE010E94F82E2196C11527
:101EF00084E0D807B9F7DF91CF910895CF9384E0BC
:101F000090E00E94EA2EC82F82E290E00E94EA2E22
:101F1000982F8C2FCF91089583E290E00E94EA2EB3
:101F20008F3F89F484E290E00E94EA2E8C3559F4C8
:101F300085E290E00E94EA2E91E0843A09F090E078
:101F4000892F8170089580E0FCCF0F931F93CF936A
:101F5000DF93843030F5633020F54A3010F5C42F1C
:101F6000D0E0CC0FDD1F24E1629FC00DD11D1124F4
:101F70003CE3839FC00DD11D1124CE0187960E94A2
:101F8000EA2E082F10E0102F0027CE0188960E941D
:101F9000EA2E9801282BC901DF91CF911F910F9153
:101FA000089590E080E0F8CF462F672F20913A0205
:101FB00030913B02232B89F47E3F39F44E3F69F484
:101FC00080912102909122020895843030F4733080
:101FD00020F44A3010F40C94A50F90E080E00895AE
:101FE000DF92EF92FF920F931F93CF93DF937C01C9
:101FF0000091770380917603082BC7E0D0E010E0D2
:10200000DC2EC8010C2E02C0959587950A94E2F744
:1020100080FD0CC02197A0F7D12C8D2DDF91CF91A1
:102020001F910F91FF90EF90DF900895B7018C2FD3
:102030000E94D40F0E94A304019761F3EECFCF93C7
:10204000DF93D82FC92F0E94F00F6D2F7C2F0E9495
:10205000D40FDF91CF910C94A304FC01868197816A
:10206000009721F00E94A3040C9454038081918175
:102070000E941F10F9CF1F93CF93DF93182FD92FF2
:10208000662391F0442381F00E94F00FC82F682F3F
:10209000812F9D2F0E947D03612F7D2F8C2FDF913B
:1020A000CF911F910C94D40F0E94AD03C82FF4CF91
:1020B000FC01462F86819781009729F462818081F7
:1020C00091810C943B1008950F931F93CF93DF934E
:1020D00005E214E0C7E1D1E0CE010E94EA2EF8014A
:1020E00061918F01681719F0CE010E94F82E219698
:1020F000C933F1E0DF0781F7DF91CF911F910F9195
:1021000008950F931F93CF93DF9305E214E0C7E187
:10211000D1E0CE010E94EA2EF80181938F01219631
:10212000C933F1E0DF07A9F7CBE6D3E0FE018591E3
:102130009491009711F0FC0109952896F4E0C330C2
:10214000DF07A1F7DF91CF911F910F910895E5E28D
:10215000F4E0128E138E8FEA90E09183808385E005
:10216000848F88E893E1938382834CE251E0558326
:10217000448322E330E03783268385E090E0918733
:1021800080878AE090E09387828764E170E07587BA
:1021900064875787468744E650E0518B408B48E080
:1021A00050E0538B428B48E250E0558B448B378B89
:1021B000268B28EC30E0318F208F158E978F868FFD
:1021C00080E590E091A380A30E9464100C9481109C
:1021D0001092780380911401E4E7F1E0882359F02C
:1021E0008091730387FF07C08EE1DF011D928A95FE
:1021F000E9F70C94CB0986E0F8CF1F93CF93DF93D8
:10220000CDB7DEB7AA970FB6F894DEBF0FBECDBF2D
:1022100088E991E0FC0101962091F100208321E002
:10222000803A9207B9F780919901893009F456C034
:10223000C8F4823009F4B2C0833009F481C081301F
:1022400071F18091E80083FF8EC280919801909196
:1022500099019A3008F087C2E92FF0E0EE5AF04D6C
:102260000C94A72E8A3009F488C08B3051F78091E6
:102270009801813231F780919C0190919D01892BC9
:1022800001F78091E800877F8093E8000E94BA0AF6
:1022900080919A01809314010E94E810D2CF80911E
:1022A0009801813A71F68091E800877F8093E80079
:1022B00080919C0190919D01892B61F460E283EAF9
:1022C00091E070E00E94600A8091E8008B77809333
:1022D000E800B7CF60E090E080E0F3CF8091980114
:1022E000813209F0AECF80919C0190919D018D7F4C
:1022F000892B09F0A6CF8091E800877F8093E800C2
:102300008091E80082FF17C09091F3008091F20065
:10231000029729F48091F1008B7F813021F4809124
:10232000F1008093C3018091E8008B778093E800EF
:102330000E94BA0A86CF80913D028111E1CF81CF00
:1023400080919801813A09F07CCF80919C01909115
:102350009D01892B09F075CF8091E800877F8093DC
:10236000E8008091E80080FFFCCF80911401809309
:10237000F1008091E8008E77D9CF80919801813269
:1023800009F05FCF8091E800877F8093E8000E948A
:10239000BA0A80919B018093940153CF8091980158
:1023A000813A09F04ECF8091E800877F8093E80062
:1023B0008091E80080FFFCCF80919401D8CF8038D5
:1023C00099F0823809F0CFC180919C018F708730DD
:1023D00008F0C9C18093E9008091EB0085FB882754
:1023E00080F91092E90006C08091950190913C021D
:1023F000911182609091E800977F9093E80080931C
:10240000F1001092F1008091E8008E77A8C1882336
:1024100009F496C1823009F0A6C180919A01811118
:1024200099C180919C018F702FEF280F263008F002
:102430009AC18093E9002091EB0020FF8BC193307B
:1024400031F48091EB0080628093EB0083C1909126
:10245000EB0090619093EB0021E030E001C0220F8F
:102460008A95EAF72093EA001092EA008091EB0047
:102470008860EACF811177C110919A011F7780910E
:10248000E3008078812B8093E3008091E800877FD0
:102490008093E8000E94BA0A8091E80080FFFCCF98
:1024A0008091E30080688093E30082E0111183E073
:1024B00080933D0258C18058823008F054C1409149
:1024C0009A0150919B014C3D83E0580799F583E0B8
:1024D0008A838AE289834FB7F894DE01139620E05D
:1024E0003EE051E2E32FF0E050935700849120FF4B
:1024F00003C082958F703F5F8F708A30C8F0895C0F
:1025000090E08D939D932F5F243161F74FBF8091B1
:10251000E800877F8093E8006AE270E0CE010196D0
:102520000E94600A8091E8008B778093E8001BC1CD
:10253000805DE6CF80919C0190919D01252F3327EE
:102540002330310509F44AC078F52130310509F40A
:1025500086C08BE590E0EAECF1E02230310509F02D
:1025600002C12091E800277F2093E80020919E017E
:1025700030919F018217930708F49C0140E02115D8
:10258000310509F071C041116FC08091E80082FDF2
:10259000C9CF80913D02882329F2853019F28091BC
:1025A000E80083FFF2CFBECF2132310509F448C0E5
:1025B0002232310509F0D7C08330910508F0D3C02D
:1025C000FC01EE0FFF1FE85DFE4F0190F081E02D52
:1025D0008B5D9E4FDC018C9190E026C0CA0199274B
:1025E000423031F18330910568F40097B1F00197E2
:1025F00009F0B9C0E3E6F2E0E4918E2F90E0E3E663
:10260000F2E012C0039709F0AEC0E7E3F2E0E49114
:102610008E2F90E0E7E3F2E007C0E1E7F2E0E4911B
:102620008E2F90E0E1E7F2E0009709F49CC099CF8B
:10263000E5E5F2E0E4918E2F90E0E5E5F2E0F4CFFD
:102640008330910508F08FC0880F991FFC01E25D6F
:10265000FE4F0190F081E02D89E090E082CF82E191
:1026600090E0E5E2F2E07DCF80913D02882309F41D
:1026700059CF853009F456CF8091E80083FD52CFC1
:102680008091E80082FD81CF8091E80080FF77CFC4
:102690009091F3008091F2002115310519F08830F6
:1026A000910550F041E0089709F040E08091E80082
:1026B0008E778093E80063CF44914093F100319688
:1026C000215031090196E8CF803809F04CC0809143
:1026D000E800877F8093E800809196018093F10065
:1026E00092CE811140C010919A011230E0F5809194
:1026F000E800877F8093E800109396010E94BA0A51
:10270000112311F084E005C08091E30087FDFACF2A
:1027100081E080933D0242E061EC81E00E94830B06
:1027200042E261EC84E00E94830B42E261EC82E0D1
:102730000E94830B42E260EC83E00E94830B13C093
:1027400080919A01813079F481E0933009F080E042
:1027500080933C021092E9008091E800877F80938B
:10276000E8000E94BA0A8091E80083FF0AC08091C5
:10277000E800877F8093E8008091EB00806280937F
:10278000EB00AA960FB6F894DEBF0FBECDBFDF9167
:10279000CF911F9108957F928F929F92AF92BF9297
:1027A000CF92DF92EF92FF920F931F93CF93DF931D
:1027B000CDB7DEB764970FB6F894DEBF0FBECDBFBE
:1027C000A0903802B090390281E090E090933902F5
:1027D00080933802912C812CE12C6401F12C15C0DE
:1027E000F80125913491472D6F2D8E2D0E94390FC0
:1027F0000E5F1F4F73948AE07812F2CFAAE0CA0EE0
:10280000D11CF394B3E0FB1639F08601000F111FC1
:102810000B581D4F712CE4CFE3948EE1880E911C70
:10282000A4E0EA12DACF0E94A7101A8219821C8251
:102830001B821E821D8218861F8288EC90E09A8778
:10284000898709E311E04AE050E0B801CE01019622
:102850000E941C2F065F1F4F0938B1E01B0799F734
:10286000FE013B968AE0DF011D928A95E9F77F0120
:102870004AE050E0B801C7010E941C2F065F1F4FBD
:10288000093DB1E01B07A1F7B0923902A0923802CE
:1028900064960FB6F894DEBF0FBECDBFDF91CF9127
:1028A0001F910F91FF90EF90DF90CF90BF90AF906E
:1028B0009F908F907F90089580E00E94230F60E0AA
:1028C00086E290E00E94F82E0E94CB130E946E0FC9
:1028D00081E00C94230F6AEE7EEF90E080E00E948E
:1028E000162F60E082E090E00E94F82E60E083E026
:1028F00090E00E94F82E1092760360E084E090E071
:102900000E94F82E60E082E290E00E94F82E60E0E3
:1029100085E090E00E94F82E60E086E090E00E9462
:10292000F82E6FEF87E090E00E94F82E40E050E034
:10293000BA0188E090E00E940A2F60E08DE090E00C
:102940000E94F82E40E050E0BA0188E190E00E9439
:102950000A2F60E087E190E00E94F82E40E050E00E
:10296000BA018CE190E00E940A2F70E060E080E202
:1029700090E00E94162F40E050E0BA0188E190E01C
:102980000E940A2F80E00E94230F0E945C1440E006
:1029900050E0BA018FE090E00E940A2F40E050E042
:1029A000BA0183E190E00C940A2FCF92DF92EF926C
:1029B000FF920F931F93CF93DF93CDB7DEB72A9784
:1029C0000FB6F894DEBF0FBECDBFE9ECF1E080E5B5
:1029D000DF011D928A95E9F7EDEEF3E088E3DF0170
:1029E0001D928A95E9F789ECC82E81E0D82E7F01E7
:1029F00009E811E0F701D182C0824AE050E0B80155
:102A0000CE0101960E94DA2E88E0FE013196D601B1
:102A100001900D928A95E1F789859A85D7011396E1
:102A20009C938E931297BAE0CB0ED11CE7E0EE0E8A
:102A3000F11C065F1F4F093DF1E01F07D9F62A96EA
:102A40000FB6F894DEBF0FBECDBFDF91CF911F91BF
:102A50000F91FF90EF90DF90CF900895282FCB013A
:102A6000283068F43AE0239FB0011124675C7E4F60
:102A70004AE050E00E94DA2E90E080E008958FEF67
:102A80009FEF08958F929F92AF92BF92CF92DF9265
:102A9000EF92FF920F931F93CF93DF9300D000D05C
:102AA000CDB7DEB77C01DC019C9111968C9111971A
:102AB00013962D913C91232B21F089238F3F09F010
:102AC00010C60F900F900F900F90DF91CF911F9134
:102AD0000F91FF90EF90DF90CF90BF90AF909F90BD
:102AE0008F900895D60116968C9116978823D1F071
:102AF00019968D919C910817190739F48091B902A4
:102B00009091BA020817190769F0F60197861487A1
:102B10000387C6010E94E608C60106960E940A09BC
:102B200010927A03FFEFAF1ABF0A26E1C20ED11C42
:102B3000EEC5C80182519F45409708F0A2C58FEFAE
:102B400093E00E94EA2E4EEED42ED00E09ED11E055
:102B5000882351F180917B03877009F4B2CFD701AC
:102B600012968C91882309F4ACCF82E00F900F90DD
:102B70000F900F90DF91CF911F910F91FF90EF90E9
:102B8000DF90CF90BF90AF909F908F900C941D0AD4
:102B9000011544E01407F1F2C8010E94EA2E8111E8
:102BA00001C0DA940F5F1F4FD110F2CF809118014E
:102BB00090911901A0911A01B0911B0189839A8308
:102BC000AB83BC8399249A9468015FEFC51AD50A38
:102BD000C8010E94EA2E89831A82882309F4BACF99
:102BE000813009F048C0580182E0A80EB11CC6012E
:102BF0000E94EA2EC82E8A83882309F4ABCFC50130
:102C00000E94EA2ED82E8FEF8C0D833068F4580185
:102C100093E0A90EB11CDB82DD2021F0CE010196EC
:102C20000E94C00D8501D0CFA4E0CA12FBCF58018D
:102C3000B4E0AB0EB11CC80103960E94EA2EDD2061
:102C400009F488CF882309F485CF8150990B989E89
:102C50009001999E300D1124ED2DE150FF0BCF0115
:102C6000820F931F0197F0F2AFE9BFE01197F1F7E0
:102C700000C00000F7CFCE0101960E94C00D5601A2
:102C8000D1CF81E00E94F0090E94780B63CF81E0F0
:102C90000E94110AF9CF82E0F5CF82E0F9CF8230AD
:102CA00009F080C58091B3029091B402892B09F498
:102CB00079C526E12C9DC0012D9D900D11248554D0
:102CC0009D4FDC0150961C920E94E6086BC5823035
:102CD00049F46801F2E0CF0ED11CF60184910E9404
:102CE000220CFBC4833049F46801F2E0CF0ED11C02
:102CF000F60184910E947509F0C4843009F0EDC496
:102D00006801F2E0CF0ED11CF601249180E090E042
:102D1000F60131962053330B2A30310558F00097D5
:102D200009F4DBC4AFE9BFE01197F1F700C0000080
:102D30000197F5CFB89EA001B99E500D1124C9018D
:102D4000840F951F24916F01E3CF0E945A0D6801F3
:102D5000C4C4882309F474C5FA018189882309F45D
:102D60006FC5C5018F539D4F0E940A0969C58091A7
:102D70001601816080931601F7013281332309F433
:102D8000B7C510926F030631FCE51F0708F0BCC001
:102D900002302CE5120708F4C9C00E947E0F909300
:102DA00074038093730306314CE5140708F00AC1DD
:102DB00002305CE5150708F0F8C0609173031091CC
:102DC000740384E090E00E94F82E612F82E290E08C
:102DD0000E94F82E0E94E810BDCE809116018E7FD1
:102DE0008093160182E00E944D04C6CF093311057D
:102DF00060F40D32110520F40B32110509F05BC5AA
:102E00008091400482FD57C508C004361105C1F306
:102E100052C58091400484FD4EC5D70112968C9115
:102E2000882309F446C08091160180FF44C5909123
:102E3000400491FD04C02091780321113CC595FF09
:102E400027C020916D0330916E03F601E21BF30B56
:102E50009F0196FD02C081FD1BC0283C3105C0F4D6
:102E600020916B0330916C030217130789F481FDE5
:102E700009C0802F0E94220C6DCE8091400483FDFA
:102E80001AC5CBCF80917A03826080937A03F1CF09
:102E900010936C0300936B03D0926E03C0926D038A
:102EA0008091160184608093160182E00E941D0AC1
:102EB00051CE40E0B601C8010E94D70C4BCE053F71
:102EC0005CE51507D1F027E245EE66EE063F9CE58E
:102ED000190741F027E245EE64EE043FACE51A071E
:102EE00009F04ACF0E940D0E35CE27E245EE65EE81
:102EF000F9CF26E241EE60EEF5CF26E241EE62EE3A
:102F0000F1CF28E241E0F3CFC8018A5F9C450997E1
:102F100008F443CF0631BCE51B0709F4EDC40A35BC
:102F20008DE5180709F415C108F0F1C00115ACE5ED
:102F30001A0709F4FEC00E3D1C4509F407C1F7014C
:102F400086819781009709F408C10E94A304182F75
:102F5000092FF701C280D580D2942FE0D222809130
:102F60007B038770A1F0AC2CCC2091F0892F807F5F
:102F7000803421F080E2810F883048F082E00E94A6
:102F80001D0A80917B038770AA24A3948111A12C30
:102F9000802F82958F70882E912C8C3008F028C15C
:102FA000F401E45AF04D0C94A72EF801E350FC45CF
:102FB000809173038160E331F105B8F4E859F04D75
:102FC0000C94A72EC8018A5F9C45099708F0F5CE9E
:102FD000F801EB5FFC45E830F10590F4E558F04D61
:102FE0000C94A72E80917303826080937303E5CEC7
:102FF000809173038460F9CF809173038860F5CF6B
:1030000080917403816080937403D7CE80917403A0
:103010008260F9CF809173038061E7CF8091730361
:103020008062E3CF809173038064DFCF0E94E81059
:10303000809173038068D9CF809173038C60D5CF62
:10304000809174038360DFCF809173038E7FCDCF37
:10305000809173038D7FC9CF809173038B7FC5CF20
:1030600080917303877FC1CF809174038E7FCBCF14
:10307000809174038D7FC7CF809173038F7EB5CF0E
:10308000809173038F7DB1CF809173038F7BADCF20
:103090000E94E810809173038F77A7CF809173030C
:1030A000837FA3CF809174038C7FADCF8091730316
:1030B00082FB992790F921E0922790FB82F990FBFF
:1030C00083F993CF80917403982F909591708E7FA0
:1030D000892B90FB81F997CF0E94E81090917303A0
:1030E000892F97FB87F9805880CF61E08EE090E0D0
:1030F0000E94F82E62CE60E0F9CF809170038111BA
:1031000004C089E20E94180422C485E3FBCF0B357A
:10311000EDE51E0701F10C351D4509F010CF80913A
:10312000740382FB882780F991E089270E94090FA8
:1031300006CF0E94E8102FEF44E35CE021504040AE
:103140005040E1F700C000000E944C0A0E946B143E
:1031500001CD81E0EBCF80E0E9CF8281C080D180DA
:10316000882369F0C6010E94F00F182F682FC6014E
:103170000E947D03B601812F0E94D40FE6CEC601C6
:103180000E94AD03182FF6CFF02FFF70BF2E802FB7
:10319000807F19F0B29490EFB922CC20C9F0BB2007
:1031A00069F080E2810F883010F011110BC080911E
:1031B00078038B29809378030E947008812F0E94E6
:1031C000220C16C080917A038B2980937A03F4CF66
:1031D000812F0E947509BB2059F080E2810F883051
:1031E00010F0111144C08B2D0E9445040E947008FC
:1031F000A8E08A1A9108B4E08B16910410F40E949A
:103200001108812F902F0E94540381111DC210922A
:10321000480410924704AA20B1F080917B0380FDFE
:1032200012C0D70112961C928595859585950E94AE
:10323000F009C7010E94421580917B038595859511
:1032400085950E94110A60E0C7010F900F900F90C2
:103250000F90DF91CF911F910F91FF90EF90DF9032
:10326000CF90BF90AF909F908F900C9458108B2D63
:103270000E944D04BBCF202F2F70B22E802F807F55
:10328000803219F0B29480EFB8221123E9F01130A6
:1032900009F46AC0CC2009F473C0DD2009F441C0F0
:1032A00040E0D70112966C9112978D919C910E94EB
:1032B0003B108091420481FD81CFF701858180FF21
:1032C0007DCF8F7085832DC0CC2069F1D11006C0D1
:1032D000809175038B290E94C4088ACF41E0D412E3
:1032E00013C08091740382FD83CF80917503B82A47
:1032F000B81609F47DCF0E94490890937203809319
:103300007103B092750374CF80914104823000F351
:10331000D812DECF0E94550480917903B812B09282
:1033200079038B2DD8CFD11006C00E9455048B2D68
:103330000E94CE085DCF8091410451E0D5120FC0AC
:10334000823008F455CF809178038B2109F450CF57
:1033500080917903882349F310927903E6CF823074
:1033600020F38D11E2CF44CFCC2029F085E08D15DC
:1033700008F43ECFD6CF94E09D1508F439CFD7CFCF
:10338000DD20A9F28091450490914604193321F083
:1033900080914304909144040E94140C812F0E9458
:1033A000750926CF802F86958695837069F08130C8
:1033B00009F01ECF812F902F9370C11002C090E0B2
:1033C00080E00E94330814CF812F902F9370C1109A
:1033D00002C090E080E00E941D080ACF812FCC201F
:1033E00039F00E94DF060E944F090E944F0900CF6A
:1033F0000E943107FACF802F8370A9F5C110F8CE53
:10340000812F829586958770880F880F412F4F7086
:10341000082E01C0440F0A94EAF7212F207114FFEF
:1034200007C02FE030E001C0220F8A95EAF720950F
:10343000902F969596959370923081F0822F842BE1
:10344000933031F080917603913029F0242B822340
:103450000E94E809CDCE842B822BFACF242B8091B9
:1034600076038227F5CFCC2069F100FFC1CE812FF2
:10347000829586958770880F880F412F4F70082E90
:1034800001C0440F0A94EAF7212F207114FF07C0EE
:103490002FE030E001C0220F8A95EAF72095902FA7
:1034A000969596959370923099F0822F842B933055
:1034B00031F080917703913041F0242B82230E94D8
:1034C000EC0996CE01FF94CED2CF842B822BF7CF7E
:1034D000242B809177038227F2CFF02FFF70BF2E2D
:1034E000CC2029F08F2F0E94F009812FF4CE812F5C
:1034F0000E94CE088B2D0E94110A7ACE123F09F449
:103500004FC068F4103F69F1113F09F441C0CC206D
:1035100009F495C0D11052CE802F8F713EC0133F59
:1035200009F443C0143F99F720914104223008F474
:103530006FC080917903CC2009F452C00E944504E9
:1035400080917B0387708430E1F510927B031092A9
:103550007D0310927C03802F8F710E94110AA12C91
:1035600047CECC2081F024E02D1508F441CE202F49
:103570002F7181E090E001C0880F2A95EAF79091C1
:10358000770389279CCF45E04D1508F431CEEFCF66
:10359000802F8F71CC2009F4AECF0E94F00928CE85
:1035A000802F8F71CC20C9F3A6CF80E0CC2009F406
:1035B00086CF81E0902F9F7101C0880F9A95EAF71E
:1035C0007ECF80914104D81650F6502F5F71B52EF2
:1035D000852F0E94F00963E08B2D0E94FB09BFCF6D
:1035E00090917803982B90937803D21668F01092FC
:1035F0007B0310927D0310927C038111109279035A
:1036000064E0802F8F71E9CF81E00E941D0AA7CF6F
:10361000CC2051F0802F8F71B82E0E94F00963E00A
:103620008B2D0E94FB09E4CD81E00E941D0A91E0F0
:103630009D1508F0DDCD82E00E941D0AD9CDD11084
:10364000A1CE802F8F7157CFCC2019F0D110DFCDB4
:10365000E2CDD110DCCD40E0F70162818081918123
:103660000E943B108091420483FFD1CD809147049A
:1036700090914804029709F0CACD812F0E94370D1E
:10368000C6CD0031BFE51B0709F4FBCA0131EFE5E8
:103690001E0709F400CB0236EDE51E0709F082C0D3
:1036A00009EF14E03AE0B32EF8018491882309F47D
:1036B00051CA813009F049CB6801FFEFCF1ADF0A08
:1036C000F6018491813009F002CB6801F2E0CF0E5F
:1036D000D11CF60184910E94370D86010F5F1F4FA8
:1036E000E3CF61E0C7010E9458108C01D701129608
:1036F0008C918823A9F0809115018F3F89F05BEBB5
:10370000C52E52E0D52EB12CA12C992493948091F2
:103710001501082E000C990B8A159B050CF0E2C9C7
:10372000F7018281811105CA0031FFE51F0709F405
:10373000AECA01312FE5120709F4AFCA6801F7E5F7
:10374000DF1A2FEFC216D10409F060F56FEA72E0BC
:103750008C2D0E942E15892B29F586E18C9DF00178
:103760008D9DF00D1124E554FD4F8681813009F0C7
:1037700096CA8091AF029091B002892B99F0809106
:10378000B1029091B202892B69F08091B3029091BD
:10379000B4022091B5023091B602822B932B892B73
:1037A00009F487CAC80197558F3F910511F008F0B9
:1037B00047C020911501022E000C330B2817390742
:1037C00014F480931501F701228136E1389F5001EE
:1037D000399FB00C1124A50145545D4F6A01DA01EF
:1037E00050962C935097928116968C911697992308
:1037F00009F4AFCA1A961C930E9319978F5F169609
:103800008C930E944908F6019687858780917503FD
:10381000878380917A0390917803892B8087019028
:10382000F081E02D309741F0D60154966D917C9156
:10383000C5018F539D4F09951093BA020093B902A9
:103840008091400480FF37C00E9449086C01D70175
:1038500012968C91882311F18091160182FF06C087
:1038600040E0B60190E080E00E94D70C82E00E9428
:103870004D040B31BCE51B0709F479CA0C31ECE5AA
:103880001E0709F4AACA90911601892F8E7F90FF16
:1038900081600A31FCE51F0709F4A2CA083211054C
:1038A00008F0A4CA0E31110508F0E7CAC801049750
:1038B0004A9708F4AECAD70112968C91033FBCE533
:1038C0001B0709F416CB08F0FACA083DFCE51F07F0
:1038D00009F40BCB093D2CE5120709F412CB073D87
:1038E0004CE5140709F048CA26E241EE61EEFACA37
:1038F00006311C4509F023CB80917803982F9A7AE2
:1039000020913F0420FF04C0482F447409F090E048
:1039100021FF04C0482F417109F090E022FF04C04C
:10392000482F487809F090E023FF03C0827209F025
:1039300090E0332309F4E1CB81E0911101C080E0F4
:103940008093700389E2911185E30E94E4030E9451
:10395000700800C9EF92FF920F931F93CF93DF93EC
:1039600080919602807F31F480919302C091500241
:10397000811119C0DF91CF911F910F91FF90EF90AE
:103980000895809191029091920220919402309139
:103990009502D0E02115310521F0492F48234F3FF2
:1039A00039F42196C77080914F028C13EACFE2CF91
:1039B0008E0143E0000F111F4A95E1F7F801EF5A1D
:1039C000FD4F41819413EDCF90819813EACF82810E
:1039D0008111E7CFE380F480E21AF30A60E081E925
:1039E00092E00E94581080913D0490913E04E816A8
:1039F000F906B8F6809196028F70806180939602E6
:103A0000F801EA5AFD4F80818F708061808381E9DF
:103A100092E00E944215DF91CF911F910F91FF908C
:103A2000EF900C94DA037F928F929F92AF92BF92A5
:103A3000CF92DF92EF92FF920F931F93CF93DF937A
:103A4000CDB7DEB72D970FB6F894DEBF0FBECDBF52
:103A50008C0185E0F801DE01199601900D928A959E
:103A6000E1F7D801BC901196AC9011971296EC90AA
:103A700012971396CD90DC909091910280919202D2
:103A800020919402309195022115310521F089236E
:103A90008F3F09F0A7C1EE2009F4A0C0C8010E9421
:103AA0002D10F82E882309F499C088E0F801A1E9C7
:103AB000B2E001900D928A95E1F70E94AA1C27C1FD
:103AC00060E081E992E00E9458108091420480FDFC
:103AD000C1C1CD2829F08B2D8A218F3F09F0EEC07E
:103AE00080E0A82FA170DA2EE091500220914F02C1
:103AF00080FD1EC0EE2009F40AC18091960281600B
:103B000080939602F12C03C18E2F90E0B8E0EB9FDA
:103B1000F0011124EF5AFD4F31813A1106C0308176
:103B20003B1103C032813E11E5CF0196E82FE770CB
:103B3000E213EACF89859A850E941F10292F2295CA
:103B40002F70903260F0225F2F70223078F49F70D7
:103B500051F0F8019581907F31F4D12C0AC09F700B
:103B600011F08823D1F3805E8830B8F3C8010E9439
:103B70004215FD2CCCC0452B29F0282F29232F3F9F
:103B800009F0DAC0C8010E942D10882339F1EE2017
:103B900029F1809196028032A0F08091910290915B
:103BA00092029A8389831B82DD82CC827E828091FD
:103BB00097029091980298878F83CE0101960E9478
:103BC000421588E0F801A1E9B2E001900D928A95D2
:103BD000E1F70E94AA1CFF24F39499C0C8010E9437
:103BE0004215F9CF872D807F61F481E992E00E9430
:103BF000421588E0E1E9F2E0DF011D928A95E9F7DC
:103C000081CF809191029091920220919402309103
:103C10009502232B09F4B6CF282F29232F3F09F42F
:103C2000B1CFF80121812913ADCFF801908198130C
:103C3000A9CF209197023091980286819781281709
:103C4000390709F09FCFE1109DCF7582C8010E940E
:103C50004215E1E9F2E088E0DF011D928A95E9F77B
:103C600056C060E081E992E00E94581080913D04C6
:103C700090913E048816990660F7FE2CEE2009F418
:103C8000ADCF809191029091920220919402309157
:103C90009502232B29F0282F29232F3F09F071C0EB
:103CA000C8010E942D1081118CCF809196028160F5
:103CB00080939602C8010E94421529C081E08E259A
:103CC00010CF81E08E25CFC0F80121812913B5C026
:103CD000F80190819813B1C0209197023091980219
:103CE000868197812817390709F0A7C0E110A5C080
:103CF000809196028F7080618093960281E992E0B4
:103D00000E94421580919602D80115968C938F2DB2
:103D10002D960FB6F894DEBF0FBECDBFDF91CF91C9
:103D20001F910F91FF90EF90DF90CF90BF90AF90D9
:103D30009F908F907F900895D80111962C91291310
:103D400021CFD8019C9198131DCF209197023091DB
:103D5000980216968D919C9117972817390709F0AC
:103D600011CFE1100FCF15967C92C8010E94421529
:103D700088E0F801A1E9B2E001900D928A95E1F79F
:103D8000C6CFD80111962C9129138ACFF8019081C2
:103D9000981386CF2091970230919802868197815F
:103DA0002817390709F07CCF60E081E992E00E9492
:103DB00058108091420482FDDBCF8091960280FDF5
:103DC000D7CF982F907FA1F2D80115968C93159795
:103DD000903F59F2982F907F905F8F70892B1596A6
:103DE0008C93C3CFF09093024601821A930AFF206E
:103DF00009F437CF60E081E992E00E945810809189
:103E00003D0490913E04709096028816990608F041
:103E1000E9CE80919102909192024091940250914A
:103E20009502272D207F09F0A6CEFE2C452B29F0E8
:103E3000282F29232F3F09F047CF60E081E992E046
:103E40000E94581080913D0490913E04843F91401F
:103E500008F436CEC114D10429F08B2D8A218F3F6E
:103E600009F02FCF80E0E091500220914F0280FFB7
:103E700030CEE21709F42DCE8E2F90E038E0E39F8C
:103E8000F0011124EF5AFD4F31813A1106C0308103
:103E90003B1103C032813E11A8CE0196E82FE77096
:103EA000E8CFCF93DF93CDB7DEB760970FB6F89426
:103EB000DEBF0FBECDBF29873A874B875C876D87F2
:103EC0007E878F87988BCE0109960E94131D8111E2
:103ED00016C088E0FE013996DE01119601900D9220
:103EE0008A95E1F799858A85A0914F022091500229
:103EF0004C855D85452B19F089238F3FA9F580916D
:103F0000500290914F0289131CC060960FB6F8942E
:103F1000DEBF0FBECDBFDF91CF91089593E0AA0F12
:103F2000BB1F9A95E1F7AF5ABD4F98E0FE0131965D
:103F300001900D929A95E1F780934F020E94DA0367
:103F4000DECFB8E08B9FC00111248F5A9D4F0E9495
:103F5000131D8823D1F28091500290E00196877062
:103F6000992780935002CBCFB0E0CD0101968770A6
:103F700099272817190691F60E94E81010924F020F
:103F80001092500288E0E1E9F2E0DF011D928A958B
:103F9000E9F7B5CF0F931F93CF93DF938091EA0397
:103FA000E091C8011CE081111EC0DF91CF911F91EB
:103FB0000F91089501E00E0F0093C801CE2FD0E0BD
:103FC0001E9FD0011124A657BC4F13968D919C9132
:103FD0001497892B39F08C9111969C911197892314
:103FE0008F3F51F4E02F8091EA03E81718F3109205
:103FF000EA031092C801D9CF16968D919C9117971C
:10400000892B29F418968D919C91019679F4E19F62
:10401000F0011124E657FC4F208131814281538108
:1040200064817581868197810E94511F1C9FF001D8
:104030001D9FF00D1124E657FC4F14821382D2CF3E
:104040003F924F925F926F927F928F929F92AF9228
:10405000BF92CF92DF92EF92FF920F931F93CF9375
:10406000DF9300D000D0CDB7DEB72091890329833C
:1040700017E0812E01E010E08CE0382E9EEF992EA3
:104080004424439480918803F9818F1319C00E94BE
:10409000CA1F0F900F900F900F90DF91CF911F913B
:1040A0000F91FF90EF90DF90CF90BF90AF909F90D7
:1040B0008F907F906F905F904F903F900C94D407BB
:1040C0009981892F90E09C838B83FC01EE0FFF1F69
:1040D000E258FC4F80819181889ED001899EB00D6D
:1040E0001124FD01E351FC4FFA83E983248121115E
:1040F00057C05090EA03EAE8F3E050E040E0712C4A
:10410000451508F04BC0A284B384A981BA81CD9033
:10411000DC902FEF3FEF612C662D70E07B01EE0C01
:10412000FF1CEC0CFD1CD701ED90FC90E114F10498
:1041300031F0AE14BF0409F49B016394EDCF2F3F1F
:104140003207C1F1D80102C0AA0FBB1F2A95E2F7BE
:104150007A2A980102C0220F331F6A94E2F7215095
:1041600031097216130621F5349EF001359EF00DCB
:104170001124E657FC4F889ED001899EB00D112472
:10418000A351BC4F12962D913C91139737832683F0
:10419000908291829187808715964C920E94E507C4
:1041A000EB81FC813196FA83E983E370E9836ACF7E
:1041B000148213824F5F5F4F3C96A2CF8F929F92E3
:1041C000AF92BF92CF92DF92EF92FF920F931F9325
:1041D000CF93DF9300D000D000D0CDB7DEB7FE0183
:1041E000319686E0DF011D928A95E9F794E3E92E86
:1041F00091E0F92E8F014F01CC24C394D12CF7010B
:1042000081917F018F3F09F44BC0F894E82FE2952C
:10421000EF70F0E021A18F70A60102C0440F551F7E
:104220008A95E2F7CA01922F982B91A392A18095CB
:10423000892382A3789400C0E7E3F1E030E020E036
:10424000B12CA12C81918F3F09F474C0A82FA295A5
:10425000AF70A05EB0E04C9150E08F7002C05595F9
:1042600047958A95E2F740FD65C0C601022E02C05F
:10427000880F991F0A94E2F7A82AB92A2F5F3F4FA7
:104280002A303105F9F6F701319780818F3F11F01F
:104290000E942E0650EA5A95F1F7D801AD92BC92D1
:1042A0000E5F1F4FB7E3EB16B1E0FB0609F0A7CF97
:1042B00046E050E0B40187E492E00E94BD2E9C01EC
:1042C00001E0892B09F400E0232BB9F186E0F40129
:1042D000A7E4B2E001900D928A95E1F781E0809326
:1042E00040020E94490890933F0280933E028091D1
:1042F0003E0290913F020E943D0A059710F1809185
:10430000470290914802909342028093410280912B
:10431000490290914A029093440280934302809113
:104320004B0290914C02909346028093450210926A
:10433000400207C080E090E09FCF80914002811151
:10434000D6CF809115018F3F09F072C0809117017F
:10435000811172C08091400480FF1CC080911601C1
:1043600082FF18C00E944908BC0180916D039091A2
:104370006E039B01281B390B809112019091130150
:104380002817390738F041E080916B0390916C0356
:104390000E94D70C802F26960FB6F894DEBF0FBE72
:1043A000CDBFDF91CF911F910F91FF90EF90DF90E4
:1043B000CF90BF90AF909F908F900895D29EF001C4
:1043C000D39EF00D1124E554FD4FE288F388E114EB
:1043D000F10421F4E0903D04F0903E04D29EF001FF
:1043E000D39EF00D1124E554FD4F86818823A1F062
:1043F000858596850E943D0AE816F90668F41D9D9C
:1044000070011124C70185549D4F0E94E608C70121
:104410008F539D4F0E940A091F5F212F30E080912A
:104420001501082E000C990B821793073CF68ECFCE
:1044300010E086E1D82EF1CF8091EB039091EC0350
:10444000009709F487CF0E943D0A2091860330919E
:1044500087032817390708F07DCF90918903809151
:104460008803981759F00E94202010928703109219
:1044700086031092EC031092EB036CCF0E94CA1FCC
:104480001092EC031092EB030E94D40763CF1092BA
:10449000EC031092EB031092170180918803809334
:1044A00089030E94D4070C94CA1F2F923F924F9207
:1044B0005F926F927F928F929F92AF92BF92CF92B4
:1044C000DF92EF92FF920F931F93CF93DF93CDB7BD
:1044D000DEB76A970FB6F894DEBF0FBECDBF498B2B
:1044E0005A8B262F6B8B7C8B8D8B8C899D89892B8E
:1044F00029F0852F84238F3F09F029C221111092C2
:104500007A031E861F86188A85E0FE017196DE01F9
:10451000199601900D928A95E1F780912704909168
:104520002804892BC1F00E94490820917C03309116
:104530007D03821B930B209127043091280482175E
:10454000930720F080917B0382FFFDC10E945508F4
:1045500081110E94550489859A852C853D85232BE0
:1045600021F089238F3F09F0DAC129853A854B85EF
:104570005C856D857E858F8598890E94511FC6C098
:1045800028EFC2162CE5D20629F4882379F00E9480
:104590004722EBCF39EFC3163CE5D30639F4882325
:1045A00029F0809117018111F2CFC9C10DEE13E0FE
:1045B000512C912C812C22242394312C9EEF492EB6
:1045C000F80140815181AA24AA94BB24BA9420E026
:1045D000822F90E0FC01EE0FFF1FE40FF51F6081BA
:1045E00071816115710531F0C616D70609F45C01B9
:1045F0002F5FEECFF12CFFEFAF16BF0609F448C0D6
:10460000F8014481F09017018F2D411180E0F82FBF
:10461000F170FF2EF801E58086819B85992309F4CE
:1046200011C1FF2009F40EC160903B0470903C045E
:10463000E11012C0A10101C0440FAA94EAF7842B33
:10464000868380918603909187038615970520F4D1
:104650007092870360928603C10102C0880F991F80
:104660002A95E2F70197F80126812817190681F4A7
:104670008091EB039091EC03009709F460C00E94D5
:104680003D0A6816790608F05AC021E0F801248333
:104690005F28FFEF8F1A9F0A095F1F4F28E08216DD
:1046A000910409F08DCF8B85882309F423C155200F
:1046B00009F420C10E9449089093EC038093EB0316
:1046C0008091EA03883010F591E0980F9093EA0307
:1046D00098E0FE013996DE01119601900D929A95AF
:1046E000E1F73CE0839FC001112486579C4F28E0EE
:1046F000FE013196DC0101900D922A95E1F72FEF32
:104700003FEFFC0131872087D386C2866A960FB6B9
:10471000F894DEBF0FBECDBFDF91CF911F910F91F7
:10472000FF90EF90DF90CF90BF90AF909F908F90D1
:104730007F906F905F904F903F902F900895809161
:104740008903309188033E8B982FE0E0F0E0E02E63
:10475000512F2E89821314C0909389030E171F07BF
:1047600009F496CF90E0FC01EE0FFF1FE258FC4FDA
:10477000918280820196837099278093880388CFE5
:10478000A82EB12CF501EE0FFF1FE258FC4F6081FF
:104790007181E7E0E69FD001E79FB00D1124A3519E
:1047A000BC4F2D913C9111973A8F298F40E020E02A
:1047B00030E0E32FF0E0EE0FFF1F698D7A8DE60FFA
:1047C000F71F6080718061147104E1F0F8010190BD
:1047D000F081E02DF88FEF8B20E005C0661677069C
:1047E00009F44F2D2F5FE22FF0E0EE0FFF1F6F89CE
:1047F000788DE60FF71F608171816115710571F782
:104800003F5FD7CF4423D9F0EE2DF52F231708F0C3
:10481000FD0121E024830E171F0721F490938903E3
:10482000F42E36CF891305C0AE17BF0711F49F5F72
:10483000937095012F5F3F4F822F83708ACFE0E006
:10484000F0E0F7CF90E0E1101FC0B10102C0660FA9
:10485000771F2A95E2F79B012150310982179307B0
:1048600031F4442309F444C0C4010E94E507C101A6
:1048700001C0880FAA94EAF7982F9095F8018681D5
:1048800089238683FE2C04CFAC010A2C02C05595E7
:1048900047950A94E2F79C01215031098223932322
:1048A000892B11F540FF20C0F80182819381892B6B
:1048B000C1F01B821C821D821E8249824A820E9494
:1048C00049088160582F692F9D838C83F80182816C
:1048D00093818F83988729813A814B817E810E94C1
:1048E000511FF8011582C3CFF42FF170EF2EBFCF07
:1048F000EF2CBDCF9091890380918803981731F0F8
:104900000E942020552009F430CE00CF0E94CA1FFB
:104910001092EC031092EB030E94D407F3CF61E0F6
:10492000CE0109960E9458106C018B8537EFC31693
:104930003CE5D30609F024CE882309F437CE81E084
:104940008093170112CE82E00E941D0AFFCD809154
:10495000470490914804019690934804809347043B
:10496000CDCD0F931F93CF93DF9300D000D00F9244
:10497000CDB7DEB78C0190932202809321020115FE
:1049800080E21807D8F4C801805E9109089728F0E2
:1049900065ED78E00115110511F464EC78E0C801CB
:1049A0000E942903802F0F900F900F900F900F906F
:1049B000DF91CF911F910F910C94220C8EEF898380
:1049C0008A8381E08B830E9449088160782F498126
:1049D0005A816B81892F0F900F900F900F900F903D
:1049E000DF91CF911F910F910C9455220F931F933C
:1049F000CF93DF9300D000D00F92CDB7DEB78C01FC
:104A00009093220280932102011580E21807D8F4C6
:104A1000802F0E947509C801805E9109089728F0CF
:104A20006FED78E00115110511F46EEC78E0C80126
:104A30000F900F900F900F900F90DF91CF911F91DB
:104A40000F910C9429038EEF89838A831B820E9425
:104A500049088160782F49815A816B81892F0F9095
:104A60000F900F900F900F90DF91CF911F910F91AA
:104A70000C945522CF93DF93D82FC92F0E94B124D5
:104A800080914304909144040E94140C8D2F9C2F1C
:104A9000DF91CF910C94F6240F931F93CF93DF9364
:104AA0008C01862F6FEA72E00E942E15892BC9F4C3
:104AB000C091AF02D091B002209799F0F8018081A7
:104AC000833069F4CE010E943A25CE010E943A2536
:104AD000CE01DF91CF911F910F910C943A25843034
:104AE000B8F7DF91CF911F910F9108950F931F9306
:104AF000CF93DF938C01EB016FEA72E08C2F0E9461
:104B00002E15892B09F063C0FE01FF27D8018C9177
:104B1000E75EFD4F8130D1F419968C911997811180
:104B20005BC01A968C91882309F456C082E080837A
:104B30008091B1029091B2020097D9F48091AF02B6
:104B40009091B002009709F442C013C08230E9F599
:104B500019968C91199781112DC01A968C918111FB
:104B60000EC083E080838091B3029091B4020097DD
:104B700019F1DF91CF911F910F910C94B12484E032
:104B800080838091B5029091B602009791F7809151
:104B9000AF029091B002009711F10E943A258091E6
:104BA000B1029091B202009721F78091AF029091EB
:104BB000B002DFCF85E080838091AF029091B00298
:104BC000009729F00E943A25F0CF86E08083DF919C
:104BD000CF911F910F91089581E08083AFCF809195
:104BE000B1029091B202AECF0F931F93CF93DF9398
:104BF0008C01EB016FEA72E08C2F0E942E15892B3D
:104C0000A1F480914304909144040E94140CDD2788
:104C1000C75EDD4F8881F80110821882833009F168
:104C200048F4813059F0823081F0DF91CF911F91AB
:104C30000F9108958430D1F08530B9F78091AF029B
:104C40009091B002009789F306C08091B1029091D3
:104C5000B202009799F3DF91CF911F910F910C94BD
:104C6000F6248091B3029091B402F3CF8091B50203
:104C70009091B602009779F72091AF023091B0027F
:104C80008091B1029091B20221153105D9F20097BD
:104C900011F7C901E0CF8F929F92AF92BF92CF924E
:104CA000DF92EF92FF920F931F93CF93DF93CDB7D5
:104CB000DEB72A970FB6F894DEBF0FBECDBF0BEB61
:104CC00012E0F12CE12C8CE4C82E85E2D82E96E778
:104CD000A92E95E2B92E24EF822E25E2922EF8011C
:104CE000D182C082B382A28295828482F58AE48ACC
:104CF000BE016F5F7F4F8E2D0E942E15892B29F4E8
:104D000089859A85F801938B828BFFEFEF1AFF0A52
:104D10000A5E1F4F88E0E816F10409F72A960FB6DD
:104D2000F894DEBF0FBECDBFDF91CF911F910F91E1
:104D3000FF90EF90DF90CF90BF90AF909F908F90BB
:104D40000895CDB7DEB7E0970FB6F894DEBF0FBE7B
:104D5000CDBF84B7877F84BF0FB6F894A8958091A4
:104D60006000886180936000109260000FBE80E850
:104D700090E00FB6F89480936100909361000FBEAD
:104D800085B7806885BF85B7806885BF8CE296E06F
:104D900090937101809370010E944B260E94D5145C
:104DA0000E9481100E940A0B0E94B30B8091E200C6
:104DB00084608093E200789480913D02882399F08A
:104DC0008091E9001091EC001795112717958F70CD
:104DD000182B1092E9008091E80083FD0E94FD10DD
:104DE0001F701093E90082E084BD93E095BD9AEFB7
:104DF00097BD80936E000E948C0F811102C00E94AB
:104E00005C1484E90E942E0684E30E942E0685E34A
:104E10000E942E0607E311E071E4E72E71E0F72E01
:104E2000D8018D918D018F3F11F00E942E06E01662
:104E3000F106B1F710924802109247021092420216
:104E40001092410210924A021092490210924402BA
:104E50001092430210924C0210924B0210924602A2
:104E60001092450290E080E00E94F22E8A3E9E4F12
:104E700021F40E948C0F811102C00E946B1482E009
:104E800090E00E94EA2E809329020E947E0F909368
:104E90007403809373030E94DE20EFE3FCE93197F3
:104EA000F1F700C000000E94DE208091410280FFE7
:104EB00008C06FEF7FEF90E080E00E94162F0E9405
:104EC0004C0A83E090E00E94EA2E0E94E80984E008
:104ED00091E090934E0280934D0258E1252E312CA3
:104EE0009E012D5F3F4F3CA72BA76DEF862E63E001
:104EF000962E80913D0210E102E1853009F443C114
:104F00000E94DE20882359F08FB7F8944091340234
:104F10005091350260913602709137028FBFA1E443
:104F2000B2E0EAE2F2E010E000E0702F8D919D9196
:104F3000219131912817390709F435C128273927DC
:104F400060E0EE24E394F12CA9014E215F21452B72
:104F500009F423C169837A839C012E213F2191E0CA
:104F6000232B09F490E09B830E9449088160782FED
:104F70009D838C8349815A816B81892F0E945522A0
:104F8000000F111FF801E65DFD4F808191818E2594
:104F90009F259183808386E0E9EAF2E0DE011196A5
:104FA00001900D928A95E1F7E090AB02F090AC028F
:104FB0000091AD021091AE021092AB021092AC02C1
:104FC0001092AD021092AE028E2D8F2991F0809139
:104FD0002602909127020E943D0A9C018091A8021E
:104FE000882309F4F7C0909111019217130608F471
:104FF000FFC0802F812B91F0809124029091250297
:105000000E943D0A9C018091A702882309F42FC1C8
:1050100090910F019217130608F437C18091AB02EB
:105020009091AC02892B9091AD02892B9091AE02A8
:10503000892B11F00E944F0986E0FE013196A9EA02
:10504000B2E001900D928A95E1F70E9411089091CB
:105050002802891721F00E9411088093280280916C
:105060003D02843009F045CF83E08093E9008091D0
:10507000E80082FF3ECF8091E80090E085FF0CC001
:105080000E94D90A50E2E52EF12C8E010F5F1F4FCE
:10509000882309F443C191E08091E8008B778093E5
:1050A000E800992309F425CF00913A0210913B02C0
:1050B000E9810115110509F43FC1EE3F09F072C104
:1050C0008A81833020F08550833008F06BC1EA81FB
:1050D000EE3008F067C1F0E0ED57F04D0C94A72ECC
:1050E00080913D02843011F11092230230E40FB61A
:1050F000F894A895209260000FBE3093600083B7AB
:10510000817F846083BF83B7816083BF78948895F3
:1051100083B78E7F83BF0FB6F894A8958091600007
:10512000886180936000109260000FBE80913C0205
:10513000882349F10E94DE2080914302909144022D
:105140002091410230914202822B932B2091450203
:1051500030914602822B932B892BA9F019BD09BDF2
:1051600009B400FEFDCF8091D8008F7D8093D800D8
:105170008091E00082608093E0008091E00081FDFA
:10518000FCCF0E94E81080913D02853009F4A8CF41
:105190000E94E8100E941108B3CE6F5FEE0CFF1C56
:1051A0006A3009F0D1CE0F5F1F4F0330110509F0AF
:1051B000BCCE8FEF89A38AA31BA20E9449088160FD
:1051C000782F9DA38CA349A15AA16BA1892F0E947E
:1051D0005522E1CE409110019AE0499FA00111248F
:1051E0004217530708F005CF8F5F8093A80202C0D3
:1051F0008F3FD1F7EE2059F00E9447069FEF1E1413
:105200000CF491E0899F802D11248093AB02FF2044
:1052100059F00E9447069FEF1F140CF491E0899FFC
:10522000802D11248093AC023091AB02332309F41A
:10523000E0CE2091AC02222309F4DBCE45EB34030F
:10524000C0011124992359F09093AB0255EB25032B
:1052500090011124332339F03093AC02CACE81E09F
:105260008093AB02F3CF81E08093AC02C2CE409139
:105270000E019AE0499FA00111244217530708F03C
:10528000CDCE8F5F8093A70202C08F3FD1F700235E
:1052900059F00E94A6069FEF10160CF491E0899F2A
:1052A000802D11248093AD02112359F00E94A6068F
:1052B0009FEF11160CF491E0899F802D11248093AB
:1052C000AE023091AD022091AE02332309F4A6CE96
:1052D000222309F4A3CE45EB3403C0011124992302
:1052E00059F09093AD0255EB25039001112433231F
:1052F00039F03093AE0292CE81E08093AD02F3CFCD
:1053000081E08093AE028ACE8091F100D8018D9326
:105310008D01B1E0EB1AF10809F4BDCE8091E800EF
:1053200085FDF2CF8091E8008B778093E8000E94A2
:10533000D90A882399F3AFCEE43150F4EE2359F023
:10534000E150E33140F4F0E0EF56F04D0C94A72E1D
:10535000EE3F09F4BCCE8FEF3EC31A8289E08B8307
:1053600021C08A81823009F458C3833001F1813031
:1053700091F78FB7F8942091340230913502409123
:105380003602509137022DA73EA74FA758AB8FBFCB
:105390006DA57EA58FA598A90E94AD2E6B837C83F9
:1053A0008D839E83CE0101960E94530BA2CD8091E6
:1053B000380290913902892BA9F380914102909192
:1053C00042029827892798279C838B8380914302E8
:1053D000909144029827892798279E838D838091F6
:1053E00045029091460298278927982798878F83AE
:1053F000D9CF8A81823009F0AECF8B819C81AD817B
:10540000BE818DA79EA7AFA7B8ABBC01CD010E94FE
:10541000AD2E86E290E00E94F82EC4CF4C816B81C5
:105420008A810E94A50F9827892798279E838D83BC
:10543000B9CF2D813E813227232732274C816B81C2
:105440008A810E94390FAECF0E94CB13ABCF80E18F
:105450008A83A8CF82E08A8387E281CF8C81E82E7D
:10546000F12C8D3108F09ECF0A811B811027012776
:105470001027E00EF11E6E0195E0C90ED11CC80187
:1054800087529E4FE016F10609F48CCF0732A2E056
:105490001A0740F40E94EA2EF60181936F010F5F14
:1054A0001F4FEDCF80E0F8CF809138029091390204
:1054B000892B09F477CF8C81C82ED12C8D3108F03F
:1054C00071CF0A811B811027012710279E012F5FB2
:1054D0003F4F7901C20ED31EC80187529E4FCE1492
:1054E000DF0409F45FCF073252E0150728F4D70133
:1054F00014966C910E94F82E0F5F1F4FBFEFEB1AAE
:10550000FB0AEACF0E946E0F4DCF84E0A1CF8C81C1
:10551000E82EF12C8D3108F045CF0A811B81102730
:1055200001271027E00EF11E6E01E5E0CE0ED11C22
:10553000C80187960E151F0509F434CF003F1105E9
:1055400040F40E94EA2ED6018D936D010F5F1F4F2C
:10555000EFCF80E0F8CF8C81E82EF12C8D3108F070
:1055600021CF0A811B81102701271027003F110539
:1055700008F018CF80EF90E0801B910B8E159F05EF
:1055800008F410CF3801B7E26B0E711C809138021D
:1055900090913902892BD1F56801E1E0CE22DD241A
:1055A00000FF0DC0C80186960E94EA2E9D818927C2
:1055B0009827892781159C4511F48FEF8D83C801A9
:1055C0008E0D9F1D570180FF17C021E0A21AB10860
:1055D00045E0442E512C4C0E5D1E4A0C5B1CC30151
:1055E0008E0D9F1D0E94EA2ED2019C9181159C4533
:1055F00019F48FEFF2018083E1E0F0E0EC0FFD1F82
:10560000EC0DFD1D2FEFCA14DB0430F0FE013196C6
:105610006F01EE0EFF1E19C09481858181159C4596
:1056200011F42483258342E0C40ED11C3296EBCFC3
:10563000003F110528F4D60114966C910E94F82EB3
:105640000F5F1F4FBFEFCB1ADB0AC8018796EC1420
:10565000FD0471F7A7CE8091380290913902892B11
:1056600009F4A0CECE0101960E94530B3FEF41EE0C
:1056700054E0315040405040E1F700C000001FCCE2
:1056800088E0ECE1F1E0DE01919601900D928A95BF
:10569000E1F7FE0132968FE1DF011D928A95E9F76D
:1056A00084E0898388E07F96DE01159601900D9253
:1056B0008A95E1F777CE8CEF89831A821B821C8250
:1056C00071CE8C8190E0982F88272B81820F911DBD
:1056D000092E000CAA0BBB0B35E0880F991FAA1FDF
:1056E000BB1F3A95D1F7AC01BD01405E5F4F6F4FD4
:1056F0007F4F481759076A077B0708F453CE8C3F42
:105700009105A105B10508F04DCE4D3F510561054C
:10571000710510F04CEF50E0481B590BBC01635071
:105720007C4FCE0101960E94B42E3CCE4AE150E05F
:105730006FEF70E0CE0107960E94D32E8091380261
:1057400089830A831B821C821D8289E08E832ACE74
:1057500081E090E090933B0280933A0282E390E0F4
:1057600090933302809332020E9449089093310251
:105770008093300217CE012B61F11091410200910C
:10578000420280913002909131020E943D0A85369A
:10579000910540F101FF26C010FF24C00E94490876
:1057A00090933102809330028091320290913302C3
:1057B00001979093330280933202892B51F4109217
:1057C0003B0210923A0281E090E09093390280937C
:1057D000380280913802898380913A028A838091CD
:1057E0003202BDCD82E390E0909333028093320287
:1057F000F0CF1092390210923802D4CD0B811C8167
:1058000040E250E06FEF70E0CE0101960E94D32E8F
:1058100025E633E090E080E0AC014E5F5F4F41321F
:10582000510508F0BFCDF90165917491061717076E
:1058300050F4E1E0F0E0EC0FFD1F8E0F9F1FDC0144
:105840006D937C93CA01285F3F4F8216930621F720
:10585000A9CD2B813C8185E693E0FC0145915491D3
:105860002417350709F4A1C0089688169906A9F7E8
:1058700072CD8B819C8105E613E0F801259134916E
:105880008217930709F4A9C0085F1F4FB3E00D3FCB
:105890001B0799F760CD0E94A71084CD8B818230C1
:1058A00009F447C058F481112DC08EE1ABA5BCA509
:1058B0001D928A95E9F788E08983CACD833009F47F
:1058C00056C0843009F06ECD6C818AE0FE013596B9
:1058D000DE01919601900D928A95E1F78FEF683085
:1058E00068F4FAE06F9FB001112467577E4F4AE0D9
:1058F00050E0CE0181960E941C2F80E089830E9497
:10590000D51450CD8C819AE0F92E8E010F5D1F4F7A
:10591000F8012F2D11922A95E9F7B8010E942E1552
:105920008983F801DE01129601900D92FA94E1F755
:1059300039CD6C818AE0FE013596DE0191960190A9
:105940000D928A95E1F78FEF683068F43AE0639F33
:10595000B0011124675C7E4F4AE050E0CE01819691
:105960000E941C2F80E089830E944B261BCD6C81F6
:105970002AE0CE018196DC01E22F1D92EA95E9F73B
:10598000683088F4629FB001112467577E4F4AE067
:1059900050E00E94DA2E80E089838AE0FE01B19611
:1059A000DE01129683CE8FEFF7CF9C012E5F3F4F23
:1059B000F901459154914032510508F0CCCCF901E0
:1059C000459154910496FC0165917491CE01029623
:1059D0000E94CA2E80E08983E5CCC8010296FC01B2
:1059E000259134912D31310508F0B5CCFC0145915C
:1059F0005491F801349685919491BE016B5F7F4F6D
:105A00000E94CA2E0E946410F801369685919491E6
:105A1000009701F3FC010995DDCF86E290E00E943A
:105A2000EA2E1B821C821D8291CE1F921FB61F92EE
:105A300011248F939F93AF93BF9380912302811181
:105A400013C08091340290913502A0913602B0913A
:105A500037024196A11DB11D809334029093350207
:105A6000A0933602B0933702BF91AF919F918F916F
:105A70001F901FBE1F90189578941F921FB61F92FB
:105A800011248F939F93AF93BF9380913402909191
:105A90003502A0913602B09137020196A11DB11DC9
:105AA0008093340290933502A0933602B09337026C
:105AB000BF91AF919F918F911F901FBE1F9018951E
:105AC0001F920F920FB60F9211242F933F934F9373
:105AD0005F936F937F938F939F93AF93BF93EF9356
